{
  "_format": "hh-sol-artifact-1",
  "contractName": "Land",
  "sourceName": "contracts/Land.sol",
  "abi": [
    {
      "inputs": [],
      "stateMutability": "nonpayable",
      "type": "constructor"
    },
    {
      "anonymous": false,
      "inputs": [
        {
          "indexed": true,
          "internalType": "address",
          "name": "owner",
          "type": "address"
        },
        {
          "indexed": true,
          "internalType": "address",
          "name": "approved",
          "type": "address"
        },
        {
          "indexed": true,
          "internalType": "uint256",
          "name": "tokenId",
          "type": "uint256"
        }
      ],
      "name": "Approval",
      "type": "event"
    },
    {
      "anonymous": false,
      "inputs": [
        {
          "indexed": true,
          "internalType": "address",
          "name": "owner",
          "type": "address"
        },
        {
          "indexed": true,
          "internalType": "address",
          "name": "operator",
          "type": "address"
        },
        {
          "indexed": false,
          "internalType": "bool",
          "name": "approved",
          "type": "bool"
        }
      ],
      "name": "ApprovalForAll",
      "type": "event"
    },
    {
      "anonymous": false,
      "inputs": [
        {
          "indexed": true,
          "internalType": "address",
          "name": "from",
          "type": "address"
        },
        {
          "indexed": true,
          "internalType": "address",
          "name": "to",
          "type": "address"
        },
        {
          "indexed": true,
          "internalType": "uint256",
          "name": "tokenId",
          "type": "uint256"
        }
      ],
      "name": "Transfer",
      "type": "event"
    },
    {
      "inputs": [
        {
          "internalType": "address",
          "name": "to",
          "type": "address"
        },
        {
          "internalType": "uint256",
          "name": "tokenId",
          "type": "uint256"
        }
      ],
      "name": "approve",
      "outputs": [],
      "stateMutability": "nonpayable",
      "type": "function"
    },
    {
      "inputs": [
        {
          "internalType": "address",
          "name": "owner",
          "type": "address"
        }
      ],
      "name": "balanceOf",
      "outputs": [
        {
          "internalType": "uint256",
          "name": "",
          "type": "uint256"
        }
      ],
      "stateMutability": "view",
      "type": "function"
    },
    {
      "inputs": [
        {
          "internalType": "uint256",
          "name": "tokenId",
          "type": "uint256"
        }
      ],
      "name": "burn",
      "outputs": [],
      "stateMutability": "nonpayable",
      "type": "function"
    },
    {
      "inputs": [
        {
          "internalType": "uint256",
          "name": "tokenId",
          "type": "uint256"
        }
      ],
      "name": "getApproved",
      "outputs": [
        {
          "internalType": "address",
          "name": "",
          "type": "address"
        }
      ],
      "stateMutability": "view",
      "type": "function"
    },
    {
      "inputs": [
        {
          "internalType": "address",
          "name": "owner",
          "type": "address"
        },
        {
          "internalType": "address",
          "name": "operator",
          "type": "address"
        }
      ],
      "name": "isApprovedForAll",
      "outputs": [
        {
          "internalType": "bool",
          "name": "",
          "type": "bool"
        }
      ],
      "stateMutability": "view",
      "type": "function"
    },
    {
      "inputs": [],
      "name": "mintLand",
      "outputs": [
        {
          "internalType": "uint256",
          "name": "",
          "type": "uint256"
        }
      ],
      "stateMutability": "nonpayable",
      "type": "function"
    },
    {
      "inputs": [],
      "name": "name",
      "outputs": [
        {
          "internalType": "string",
          "name": "",
          "type": "string"
        }
      ],
      "stateMutability": "view",
      "type": "function"
    },
    {
      "inputs": [
        {
          "internalType": "uint256",
          "name": "tokenId",
          "type": "uint256"
        }
      ],
      "name": "ownerOf",
      "outputs": [
        {
          "internalType": "address",
          "name": "",
          "type": "address"
        }
      ],
      "stateMutability": "view",
      "type": "function"
    },
    {
      "inputs": [
        {
          "internalType": "address",
          "name": "from",
          "type": "address"
        },
        {
          "internalType": "address",
          "name": "to",
          "type": "address"
        },
        {
          "internalType": "uint256",
          "name": "tokenId",
          "type": "uint256"
        }
      ],
      "name": "safeTransferFrom",
      "outputs": [],
      "stateMutability": "nonpayable",
      "type": "function"
    },
    {
      "inputs": [
        {
          "internalType": "address",
          "name": "from",
          "type": "address"
        },
        {
          "internalType": "address",
          "name": "to",
          "type": "address"
        },
        {
          "internalType": "uint256",
          "name": "tokenId",
          "type": "uint256"
        },
        {
          "internalType": "bytes",
          "name": "_data",
          "type": "bytes"
        }
      ],
      "name": "safeTransferFrom",
      "outputs": [],
      "stateMutability": "nonpayable",
      "type": "function"
    },
    {
      "inputs": [
        {
          "internalType": "address",
          "name": "operator",
          "type": "address"
        },
        {
          "internalType": "bool",
          "name": "approved",
          "type": "bool"
        }
      ],
      "name": "setApprovalForAll",
      "outputs": [],
      "stateMutability": "nonpayable",
      "type": "function"
    },
    {
      "inputs": [
        {
          "internalType": "uint256",
          "name": "assetId",
          "type": "uint256"
        },
        {
          "internalType": "address",
          "name": "operator",
          "type": "address"
        }
      ],
      "name": "setUpdateOperator",
      "outputs": [],
      "stateMutability": "nonpayable",
      "type": "function"
    },
    {
      "inputs": [
        {
          "internalType": "bytes4",
          "name": "interfaceId",
          "type": "bytes4"
        }
      ],
      "name": "supportsInterface",
      "outputs": [
        {
          "internalType": "bool",
          "name": "",
          "type": "bool"
        }
      ],
      "stateMutability": "view",
      "type": "function"
    },
    {
      "inputs": [],
      "name": "symbol",
      "outputs": [
        {
          "internalType": "string",
          "name": "",
          "type": "string"
        }
      ],
      "stateMutability": "view",
      "type": "function"
    },
    {
      "inputs": [
        {
          "internalType": "uint256",
          "name": "index",
          "type": "uint256"
        }
      ],
      "name": "tokenByIndex",
      "outputs": [
        {
          "internalType": "uint256",
          "name": "",
          "type": "uint256"
        }
      ],
      "stateMutability": "view",
      "type": "function"
    },
    {
      "inputs": [
        {
          "internalType": "address",
          "name": "owner",
          "type": "address"
        },
        {
          "internalType": "uint256",
          "name": "index",
          "type": "uint256"
        }
      ],
      "name": "tokenOfOwnerByIndex",
      "outputs": [
        {
          "internalType": "uint256",
          "name": "",
          "type": "uint256"
        }
      ],
      "stateMutability": "view",
      "type": "function"
    },
    {
      "inputs": [
        {
          "internalType": "uint256",
          "name": "tokenId",
          "type": "uint256"
        }
      ],
      "name": "tokenURI",
      "outputs": [
        {
          "internalType": "string",
          "name": "",
          "type": "string"
        }
      ],
      "stateMutability": "view",
      "type": "function"
    },
    {
      "inputs": [],
      "name": "totalSupply",
      "outputs": [
        {
          "internalType": "uint256",
          "name": "",
          "type": "uint256"
        }
      ],
      "stateMutability": "view",
      "type": "function"
    },
    {
      "inputs": [
        {
          "internalType": "address",
          "name": "from",
          "type": "address"
        },
        {
          "internalType": "address",
          "name": "to",
          "type": "address"
        },
        {
          "internalType": "uint256",
          "name": "tokenId",
          "type": "uint256"
        }
      ],
      "name": "transferFrom",
      "outputs": [],
      "stateMutability": "nonpayable",
      "type": "function"
    },
    {
      "inputs": [
        {
          "internalType": "uint256",
          "name": "",
          "type": "uint256"
        }
      ],
      "name": "updateOperator",
      "outputs": [
        {
          "internalType": "address",
          "name": "",
          "type": "address"
        }
      ],
      "stateMutability": "view",
      "type": "function"
    }
  ],
  "bytecode": "0x60806040523480156200001157600080fd5b5060408051808201825260128152711bd8d8dd5b185b99081d195cdd081b185b9960721b6020808301918252835180850190945260058452641bd310539160da1b908401528151919291620000699160009162000088565b5080516200007f90600190602084019062000088565b5050506200016b565b82805462000096906200012e565b90600052602060002090601f016020900481019282620000ba576000855562000105565b82601f10620000d557805160ff191683800117855562000105565b8280016001018555821562000105579182015b8281111562000105578251825591602001919060010190620000e8565b506200011392915062000117565b5090565b5b8082111562000113576000815560010162000118565b600181811c908216806200014357607f821691505b602082108114156200016557634e487b7160e01b600052602260045260246000fd5b50919050565b611d7d806200017b6000396000f3fe608060405234801561001057600080fd5b506004361061012c5760003560e01c80636352211e116100ad578063b0b02c6011610071578063b0b02c6014610289578063b88d4fde146102c5578063c87b56dd146102d8578063dbb5c0e3146102eb578063e985e9c5146102f357600080fd5b80636352211e1461021f57806370a082311461023257806395d89b41146102455780639d40b8501461024d578063a22cb4651461027657600080fd5b806323b872dd116100f457806323b872dd146101c05780632f745c59146101d357806342842e0e146101e657806342966c68146101f95780634f6ccce71461020c57600080fd5b806301ffc9a71461013157806306fdde0314610159578063081812fc1461016e578063095ea7b31461019957806318160ddd146101ae575b600080fd5b61014461013f366004611a56565b61032f565b60405190151581526020015b60405180910390f35b610161610340565b6040516101509190611b60565b61018161017c366004611a8e565b6103d2565b6040516001600160a01b039091168152602001610150565b6101ac6101a7366004611a2d565b61045f565b005b6008545b604051908152602001610150565b6101ac6101ce3660046118e3565b610575565b6101b26101e1366004611a2d565b6105a7565b6101ac6101f43660046118e3565b61063d565b6101ac610207366004611a8e565b610658565b6101b261021a366004611a8e565b6106d2565b61018161022d366004611a8e565b610773565b6101b2610240366004611897565b6107ea565b610161610871565b61018161025b366004611a8e565b600c602052600090815260409020546001600160a01b031681565b6101ac6102843660046119f3565b610880565b6101ac610297366004611aa6565b6000918252600c602052604090912080546001600160a01b0319166001600160a01b03909216919091179055565b6101ac6102d336600461191e565b610945565b6101616102e6366004611a8e565b61097d565b6101b2610988565b6101446103013660046118b1565b6001600160a01b03918216600090815260056020908152604080832093909416825291909152205460ff1690565b600061033a826109ee565b92915050565b60606000805461034f90611c85565b80601f016020809104026020016040519081016040528092919081815260200182805461037b90611c85565b80156103c85780601f1061039d576101008083540402835291602001916103c8565b820191906000526020600020905b8154815290600101906020018083116103ab57829003601f168201915b5050505050905090565b60006103dd82610a13565b6104435760405162461bcd60e51b815260206004820152602c60248201527f4552433732313a20617070726f76656420717565727920666f72206e6f6e657860448201526b34b9ba32b73a103a37b5b2b760a11b60648201526084015b60405180910390fd5b506000908152600460205260409020546001600160a01b031690565b600061046a82610773565b9050806001600160a01b0316836001600160a01b031614156104d85760405162461bcd60e51b815260206004820152602160248201527f4552433732313a20617070726f76616c20746f2063757272656e74206f776e656044820152603960f91b606482015260840161043a565b336001600160a01b03821614806104f457506104f48133610301565b6105665760405162461bcd60e51b815260206004820152603860248201527f4552433732313a20617070726f76652063616c6c6572206973206e6f74206f7760448201527f6e6572206e6f7220617070726f76656420666f7220616c6c0000000000000000606482015260840161043a565b6105708383610a30565b505050565b610580335b82610a9e565b61059c5760405162461bcd60e51b815260040161043a90611bc5565b610570838383610b88565b60006105b2836107ea565b82106106145760405162461bcd60e51b815260206004820152602b60248201527f455243373231456e756d657261626c653a206f776e657220696e646578206f7560448201526a74206f6620626f756e647360a81b606482015260840161043a565b506001600160a01b03919091166000908152600660209081526040808320938352929052205490565b61057083838360405180602001604052806000815250610945565b6106613361057a565b6106c65760405162461bcd60e51b815260206004820152603060248201527f4552433732314275726e61626c653a2063616c6c6572206973206e6f74206f7760448201526f1b995c881b9bdc88185c1c1c9bdd995960821b606482015260840161043a565b6106cf81610d33565b50565b60006106dd60085490565b82106107405760405162461bcd60e51b815260206004820152602c60248201527f455243373231456e756d657261626c653a20676c6f62616c20696e646578206f60448201526b7574206f6620626f756e647360a01b606482015260840161043a565b6008828154811061076157634e487b7160e01b600052603260045260246000fd5b90600052602060002001549050919050565b6000818152600260205260408120546001600160a01b03168061033a5760405162461bcd60e51b815260206004820152602960248201527f4552433732313a206f776e657220717565727920666f72206e6f6e657869737460448201526832b73a103a37b5b2b760b91b606482015260840161043a565b60006001600160a01b0382166108555760405162461bcd60e51b815260206004820152602a60248201527f4552433732313a2062616c616e636520717565727920666f7220746865207a65604482015269726f206164647265737360b01b606482015260840161043a565b506001600160a01b031660009081526003602052604090205490565b60606001805461034f90611c85565b6001600160a01b0382163314156108d95760405162461bcd60e51b815260206004820152601960248201527f4552433732313a20617070726f766520746f2063616c6c657200000000000000604482015260640161043a565b3360008181526005602090815260408083206001600160a01b03871680855290835292819020805460ff191686151590811790915590519081529192917f17307eab39ab6107e8899845ad3d59bd9653f200f220920489ca2b5937696c31910160405180910390a35050565b61094f3383610a9e565b61096b5760405162461bcd60e51b815260040161043a90611bc5565b61097784848484610d3c565b50505050565b606061033a82610d6f565b6000805b600a8110156109e6576109a3600b80546001019055565b60006109ae600b5490565b90506109ba3382610ede565b6109d38160405180602001604052806000815250610efc565b50806109de81611cc0565b91505061098c565b5050600b5490565b60006001600160e01b0319821663780e9d6360e01b148061033a575061033a82610f87565b6000908152600260205260409020546001600160a01b0316151590565b600081815260046020526040902080546001600160a01b0319166001600160a01b0384169081179091558190610a6582610773565b6001600160a01b03167f8c5be1e5ebec7d5bd14f71427d1e84f3dd0314c0f7b2291e5b200ac8c7c3b92560405160405180910390a45050565b6000610aa982610a13565b610b0a5760405162461bcd60e51b815260206004820152602c60248201527f4552433732313a206f70657261746f7220717565727920666f72206e6f6e657860448201526b34b9ba32b73a103a37b5b2b760a11b606482015260840161043a565b6000610b1583610773565b9050806001600160a01b0316846001600160a01b03161480610b505750836001600160a01b0316610b45846103d2565b6001600160a01b0316145b80610b8057506001600160a01b0380821660009081526005602090815260408083209388168352929052205460ff165b949350505050565b826001600160a01b0316610b9b82610773565b6001600160a01b031614610c035760405162461bcd60e51b815260206004820152602960248201527f4552433732313a207472616e73666572206f6620746f6b656e2074686174206960448201526839903737ba1037bbb760b91b606482015260840161043a565b6001600160a01b038216610c655760405162461bcd60e51b8152602060048201526024808201527f4552433732313a207472616e7366657220746f20746865207a65726f206164646044820152637265737360e01b606482015260840161043a565b610c70838383610fd7565b610c7b600082610a30565b6001600160a01b0383166000908152600360205260408120805460019290610ca4908490611c42565b90915550506001600160a01b0382166000908152600360205260408120805460019290610cd2908490611c16565b909155505060008181526002602052604080822080546001600160a01b0319166001600160a01b0386811691821790925591518493918716917fddf252ad1be2c89b69c2b068fc378daa952ba7f163c4a11628f55a4df523b3ef91a4505050565b6106cf81610fe2565b610d47848484610b88565b610d5384848484611022565b6109775760405162461bcd60e51b815260040161043a90611b73565b6060610d7a82610a13565b610de05760405162461bcd60e51b815260206004820152603160248201527f45524337323155524953746f726167653a2055524920717565727920666f72206044820152703737b732bc34b9ba32b73a103a37b5b2b760791b606482015260840161043a565b6000828152600a602052604081208054610df990611c85565b80601f0160208091040260200160405190810160405280929190818152602001828054610e2590611c85565b8015610e725780601f10610e4757610100808354040283529160200191610e72565b820191906000526020600020905b815481529060010190602001808311610e5557829003601f168201915b505050505090506000610e9060408051602081019091526000815290565b9050805160001415610ea3575092915050565b815115610ed5578082604051602001610ebd929190611af4565b60405160208183030381529060405292505050919050565b610b808461112f565b610ef8828260405180602001604052806000815250611207565b5050565b610f0582610a13565b610f685760405162461bcd60e51b815260206004820152602e60248201527f45524337323155524953746f726167653a2055524920736574206f66206e6f6e60448201526d32bc34b9ba32b73a103a37b5b2b760911b606482015260840161043a565b6000828152600a602090815260409091208251610570928401906117ac565b60006001600160e01b031982166380ac58cd60e01b1480610fb857506001600160e01b03198216635b5e139f60e01b145b8061033a57506301ffc9a760e01b6001600160e01b031983161461033a565b61057083838361123a565b610feb816112f2565b6000818152600a60205260409020805461100490611c85565b1590506106cf576000818152600a602052604081206106cf91611830565b60006001600160a01b0384163b1561112457604051630a85bd0160e11b81526001600160a01b0385169063150b7a0290611066903390899088908890600401611b23565b602060405180830381600087803b15801561108057600080fd5b505af19250505080156110b0575060408051601f3d908101601f191682019092526110ad91810190611a72565b60015b61110a573d8080156110de576040519150601f19603f3d011682016040523d82523d6000602084013e6110e3565b606091505b5080516111025760405162461bcd60e51b815260040161043a90611b73565b805181602001fd5b6001600160e01b031916630a85bd0160e11b149050610b80565b506001949350505050565b606061113a82610a13565b61119e5760405162461bcd60e51b815260206004820152602f60248201527f4552433732314d657461646174613a2055524920717565727920666f72206e6f60448201526e3732bc34b9ba32b73a103a37b5b2b760891b606482015260840161043a565b60006111b560408051602081019091526000815290565b905060008151116111d55760405180602001604052806000815250611200565b806111df84611399565b6040516020016111f0929190611af4565b6040516020818303038152906040525b9392505050565b61121183836114b3565b61121e6000848484611022565b6105705760405162461bcd60e51b815260040161043a90611b73565b6001600160a01b0383166112955761129081600880546000838152600960205260408120829055600182018355919091527ff3f7a9fe364faab93b216da50a3214154f22a0a2b415b23a84c8169e8b636ee30155565b6112b8565b816001600160a01b0316836001600160a01b0316146112b8576112b883826115f2565b6001600160a01b0382166112cf576105708161168f565b826001600160a01b0316826001600160a01b031614610570576105708282611768565b60006112fd82610773565b905061130b81600084610fd7565b611316600083610a30565b6001600160a01b038116600090815260036020526040812080546001929061133f908490611c42565b909155505060008281526002602052604080822080546001600160a01b0319169055518391906001600160a01b038416907fddf252ad1be2c89b69c2b068fc378daa952ba7f163c4a11628f55a4df523b3ef908390a45050565b6060816113bd5750506040805180820190915260018152600360fc1b602082015290565b8160005b81156113e757806113d181611cc0565b91506113e09050600a83611c2e565b91506113c1565b60008167ffffffffffffffff81111561141057634e487b7160e01b600052604160045260246000fd5b6040519080825280601f01601f19166020018201604052801561143a576020820181803683370190505b5090505b8415610b805761144f600183611c42565b915061145c600a86611cdb565b611467906030611c16565b60f81b81838151811061148a57634e487b7160e01b600052603260045260246000fd5b60200101906001600160f81b031916908160001a9053506114ac600a86611c2e565b945061143e565b6001600160a01b0382166115095760405162461bcd60e51b815260206004820181905260248201527f4552433732313a206d696e7420746f20746865207a65726f2061646472657373604482015260640161043a565b61151281610a13565b1561155f5760405162461bcd60e51b815260206004820152601c60248201527f4552433732313a20746f6b656e20616c7265616479206d696e74656400000000604482015260640161043a565b61156b60008383610fd7565b6001600160a01b0382166000908152600360205260408120805460019290611594908490611c16565b909155505060008181526002602052604080822080546001600160a01b0319166001600160a01b03861690811790915590518392907fddf252ad1be2c89b69c2b068fc378daa952ba7f163c4a11628f55a4df523b3ef908290a45050565b600060016115ff846107ea565b6116099190611c42565b60008381526007602052604090205490915080821461165c576001600160a01b03841660009081526006602090815260408083208584528252808320548484528184208190558352600790915290208190555b5060009182526007602090815260408084208490556001600160a01b039094168352600681528383209183525290812055565b6008546000906116a190600190611c42565b600083815260096020526040812054600880549394509092849081106116d757634e487b7160e01b600052603260045260246000fd5b90600052602060002001549050806008838154811061170657634e487b7160e01b600052603260045260246000fd5b600091825260208083209091019290925582815260099091526040808220849055858252812055600880548061174c57634e487b7160e01b600052603160045260246000fd5b6001900381819060005260206000200160009055905550505050565b6000611773836107ea565b6001600160a01b039093166000908152600660209081526040808320868452825280832085905593825260079052919091209190915550565b8280546117b890611c85565b90600052602060002090601f0160209004810192826117da5760008555611820565b82601f106117f357805160ff1916838001178555611820565b82800160010185558215611820579182015b82811115611820578251825591602001919060010190611805565b5061182c929150611866565b5090565b50805461183c90611c85565b6000825580601f1061184c575050565b601f0160209004906000526020600020908101906106cf91905b5b8082111561182c5760008155600101611867565b80356001600160a01b038116811461189257600080fd5b919050565b6000602082840312156118a8578081fd5b6112008261187b565b600080604083850312156118c3578081fd5b6118cc8361187b565b91506118da6020840161187b565b90509250929050565b6000806000606084860312156118f7578081fd5b6119008461187b565b925061190e6020850161187b565b9150604084013590509250925092565b60008060008060808587031215611933578081fd5b61193c8561187b565b935061194a6020860161187b565b925060408501359150606085013567ffffffffffffffff8082111561196d578283fd5b818701915087601f830112611980578283fd5b81358181111561199257611992611d1b565b604051601f8201601f19908116603f011681019083821181831017156119ba576119ba611d1b565b816040528281528a60208487010111156119d2578586fd5b82602086016020830137918201602001949094529598949750929550505050565b60008060408385031215611a05578182fd5b611a0e8361187b565b915060208301358015158114611a22578182fd5b809150509250929050565b60008060408385031215611a3f578182fd5b611a488361187b565b946020939093013593505050565b600060208284031215611a67578081fd5b813561120081611d31565b600060208284031215611a83578081fd5b815161120081611d31565b600060208284031215611a9f578081fd5b5035919050565b60008060408385031215611ab8578182fd5b823591506118da6020840161187b565b60008151808452611ae0816020860160208601611c59565b601f01601f19169290920160200192915050565b60008351611b06818460208801611c59565b835190830190611b1a818360208801611c59565b01949350505050565b6001600160a01b0385811682528416602082015260408101839052608060608201819052600090611b5690830184611ac8565b9695505050505050565b6020815260006112006020830184611ac8565b60208082526032908201527f4552433732313a207472616e7366657220746f206e6f6e20455243373231526560408201527131b2b4bb32b91034b6b83632b6b2b73a32b960711b606082015260800190565b60208082526031908201527f4552433732313a207472616e736665722063616c6c6572206973206e6f74206f6040820152701ddb995c881b9bdc88185c1c1c9bdd9959607a1b606082015260800190565b60008219821115611c2957611c29611cef565b500190565b600082611c3d57611c3d611d05565b500490565b600082821015611c5457611c54611cef565b500390565b60005b83811015611c74578181015183820152602001611c5c565b838111156109775750506000910152565b600181811c90821680611c9957607f821691505b60208210811415611cba57634e487b7160e01b600052602260045260246000fd5b50919050565b6000600019821415611cd457611cd4611cef565b5060010190565b600082611cea57611cea611d05565b500690565b634e487b7160e01b600052601160045260246000fd5b634e487b7160e01b600052601260045260246000fd5b634e487b7160e01b600052604160045260246000fd5b6001600160e01b0319811681146106cf57600080fdfea26469706673582212200dec1eeb375343f231435bd2af04a3acb792d0af3894f828298dbbaec2f7030c64736f6c63430008040033",
  "linkReferences": {},
  "deployedLinkReferences": {}
}