{
  "_format": "hh-sol-artifact-1",
  "contractName": "MockProperty",
  "sourceName": "contracts/MockProperty.sol",
  "abi": [
    {
      "inputs": [],
      "stateMutability": "nonpayable",
      "type": "constructor"
    },
    {
      "anonymous": false,
      "inputs": [
        {
          "indexed": true,
          "internalType": "address",
          "name": "owner",
          "type": "address"
        },
        {
          "indexed": true,
          "internalType": "address",
          "name": "approved",
          "type": "address"
        },
        {
          "indexed": true,
          "internalType": "uint256",
          "name": "tokenId",
          "type": "uint256"
        }
      ],
      "name": "Approval",
      "type": "event"
    },
    {
      "anonymous": false,
      "inputs": [
        {
          "indexed": true,
          "internalType": "address",
          "name": "owner",
          "type": "address"
        },
        {
          "indexed": true,
          "internalType": "address",
          "name": "operator",
          "type": "address"
        },
        {
          "indexed": false,
          "internalType": "bool",
          "name": "approved",
          "type": "bool"
        }
      ],
      "name": "ApprovalForAll",
      "type": "event"
    },
    {
      "anonymous": false,
      "inputs": [
        {
          "indexed": true,
          "internalType": "address",
          "name": "from",
          "type": "address"
        },
        {
          "indexed": true,
          "internalType": "address",
          "name": "to",
          "type": "address"
        },
        {
          "indexed": true,
          "internalType": "uint256",
          "name": "tokenId",
          "type": "uint256"
        }
      ],
      "name": "Transfer",
      "type": "event"
    },
    {
      "inputs": [
        {
          "internalType": "address",
          "name": "to",
          "type": "address"
        },
        {
          "internalType": "uint256",
          "name": "tokenId",
          "type": "uint256"
        }
      ],
      "name": "approve",
      "outputs": [],
      "stateMutability": "nonpayable",
      "type": "function"
    },
    {
      "inputs": [
        {
          "internalType": "address",
          "name": "owner",
          "type": "address"
        }
      ],
      "name": "balanceOf",
      "outputs": [
        {
          "internalType": "uint256",
          "name": "",
          "type": "uint256"
        }
      ],
      "stateMutability": "view",
      "type": "function"
    },
    {
      "inputs": [
        {
          "internalType": "uint256",
          "name": "tokenId",
          "type": "uint256"
        }
      ],
      "name": "getApproved",
      "outputs": [
        {
          "internalType": "address",
          "name": "",
          "type": "address"
        }
      ],
      "stateMutability": "view",
      "type": "function"
    },
    {
      "inputs": [
        {
          "internalType": "address",
          "name": "owner",
          "type": "address"
        },
        {
          "internalType": "address",
          "name": "operator",
          "type": "address"
        }
      ],
      "name": "isApprovedForAll",
      "outputs": [
        {
          "internalType": "bool",
          "name": "",
          "type": "bool"
        }
      ],
      "stateMutability": "view",
      "type": "function"
    },
    {
      "inputs": [],
      "name": "mintProperty",
      "outputs": [],
      "stateMutability": "nonpayable",
      "type": "function"
    },
    {
      "inputs": [],
      "name": "name",
      "outputs": [
        {
          "internalType": "string",
          "name": "",
          "type": "string"
        }
      ],
      "stateMutability": "view",
      "type": "function"
    },
    {
      "inputs": [
        {
          "internalType": "uint256",
          "name": "tokenId",
          "type": "uint256"
        }
      ],
      "name": "ownerOf",
      "outputs": [
        {
          "internalType": "address",
          "name": "",
          "type": "address"
        }
      ],
      "stateMutability": "view",
      "type": "function"
    },
    {
      "inputs": [
        {
          "internalType": "address",
          "name": "from",
          "type": "address"
        },
        {
          "internalType": "address",
          "name": "to",
          "type": "address"
        },
        {
          "internalType": "uint256",
          "name": "tokenId",
          "type": "uint256"
        }
      ],
      "name": "safeTransferFrom",
      "outputs": [],
      "stateMutability": "nonpayable",
      "type": "function"
    },
    {
      "inputs": [
        {
          "internalType": "address",
          "name": "from",
          "type": "address"
        },
        {
          "internalType": "address",
          "name": "to",
          "type": "address"
        },
        {
          "internalType": "uint256",
          "name": "tokenId",
          "type": "uint256"
        },
        {
          "internalType": "bytes",
          "name": "_data",
          "type": "bytes"
        }
      ],
      "name": "safeTransferFrom",
      "outputs": [],
      "stateMutability": "nonpayable",
      "type": "function"
    },
    {
      "inputs": [
        {
          "internalType": "address",
          "name": "operator",
          "type": "address"
        },
        {
          "internalType": "bool",
          "name": "approved",
          "type": "bool"
        }
      ],
      "name": "setApprovalForAll",
      "outputs": [],
      "stateMutability": "nonpayable",
      "type": "function"
    },
    {
      "inputs": [
        {
          "internalType": "bytes4",
          "name": "interfaceId",
          "type": "bytes4"
        }
      ],
      "name": "supportsInterface",
      "outputs": [
        {
          "internalType": "bool",
          "name": "",
          "type": "bool"
        }
      ],
      "stateMutability": "view",
      "type": "function"
    },
    {
      "inputs": [],
      "name": "symbol",
      "outputs": [
        {
          "internalType": "string",
          "name": "",
          "type": "string"
        }
      ],
      "stateMutability": "view",
      "type": "function"
    },
    {
      "inputs": [
        {
          "internalType": "uint256",
          "name": "tokenId",
          "type": "uint256"
        }
      ],
      "name": "tokenURI",
      "outputs": [
        {
          "internalType": "string",
          "name": "",
          "type": "string"
        }
      ],
      "stateMutability": "view",
      "type": "function"
    },
    {
      "inputs": [
        {
          "internalType": "address",
          "name": "from",
          "type": "address"
        },
        {
          "internalType": "address",
          "name": "to",
          "type": "address"
        },
        {
          "internalType": "uint256",
          "name": "tokenId",
          "type": "uint256"
        }
      ],
      "name": "transferFrom",
      "outputs": [],
      "stateMutability": "nonpayable",
      "type": "function"
    }
  ],
  "bytecode": "0x60806040523480156200001157600080fd5b506040518060400160405280600c81526020017f4d6f636b50726f706572747900000000000000000000000000000000000000008152506040518060400160405280600581526020017f4d50524f50000000000000000000000000000000000000000000000000000000815250816000908051906020019062000096929190620001cf565b508060019080519060200190620000af929190620001cf565b505050620000fd6040518060400160405280601e81526020017f54686973206973206d79204e465420636f6e74726163742e20576f61682100008152506200010360201b62000b531760201c565b620003ac565b620001a3816040516024016200011a9190620002c0565b6040516020818303038152906040527f41304fac000000000000000000000000000000000000000000000000000000007bffffffffffffffffffffffffffffffffffffffffffffffffffffffff19166020820180517bffffffffffffffffffffffffffffffffffffffffffffffffffffffff8381831617835250505050620001a660201b60201c565b50565b60008151905060006a636f6e736f6c652e6c6f679050602083016000808483855afa5050505050565b828054620001dd9062000336565b90600052602060002090601f0160209004810192826200020157600085556200024d565b82601f106200021c57805160ff19168380011785556200024d565b828001600101855582156200024d579182015b828111156200024c5782518255916020019190600101906200022f565b5b5090506200025c919062000260565b5090565b5b808211156200027b57600081600090555060010162000261565b5090565b60006200028c82620002e4565b620002988185620002ef565b9350620002aa81856020860162000300565b620002b5816200039b565b840191505092915050565b60006020820190508181036000830152620002dc81846200027f565b905092915050565b600081519050919050565b600082825260208201905092915050565b60005b838110156200032057808201518184015260208101905062000303565b8381111562000330576000848401525b50505050565b600060028204905060018216806200034f57607f821691505b602082108114156200036657620003656200036c565b5b50919050565b7f4e487b7100000000000000000000000000000000000000000000000000000000600052602260045260246000fd5b6000601f19601f8301169050919050565b612c0180620003bc6000396000f3fe608060405234801561001057600080fd5b50600436106100ea5760003560e01c806370a082311161008c578063a22cb46511610066578063a22cb46514610249578063b88d4fde14610265578063c87b56dd14610281578063e985e9c5146102b1576100ea565b806370a08231146101f1578063895202ba1461022157806395d89b411461022b576100ea565b8063095ea7b3116100c8578063095ea7b31461016d57806323b872dd1461018957806342842e0e146101a55780636352211e146101c1576100ea565b806301ffc9a7146100ef57806306fdde031461011f578063081812fc1461013d575b600080fd5b61010960048036038101906101049190611d62565b6102e1565b6040516101169190612526565b60405180910390f35b6101276103c3565b6040516101349190612541565b60405180910390f35b61015760048036038101906101529190611db4565b610455565b60405161016491906124bf565b60405180910390f35b61018760048036038101906101829190611d26565b6104da565b005b6101a3600480360381019061019e9190611c20565b6105f2565b005b6101bf60048036038101906101ba9190611c20565b610652565b005b6101db60048036038101906101d69190611db4565b610672565b6040516101e891906124bf565b60405180910390f35b61020b60048036038101906102069190611bbb565b610724565b60405161021891906127a1565b60405180910390f35b6102296107dc565b005b610233610863565b6040516102409190612541565b60405180910390f35b610263600480360381019061025e9190611cea565b6108f5565b005b61027f600480360381019061027a9190611c6f565b61090b565b005b61029b60048036038101906102969190611db4565b61096d565b6040516102a89190612541565b60405180910390f35b6102cb60048036038101906102c69190611be4565b610abf565b6040516102d89190612526565b60405180910390f35b60007f80ac58cd000000000000000000000000000000000000000000000000000000007bffffffffffffffffffffffffffffffffffffffffffffffffffffffff1916827bffffffffffffffffffffffffffffffffffffffffffffffffffffffff191614806103ac57507f5b5e139f000000000000000000000000000000000000000000000000000000007bffffffffffffffffffffffffffffffffffffffffffffffffffffffff1916827bffffffffffffffffffffffffffffffffffffffffffffffffffffffff1916145b806103bc57506103bb82610bec565b5b9050919050565b6060600080546103d2906129d1565b80601f01602080910402602001604051908101604052809291908181526020018280546103fe906129d1565b801561044b5780601f106104205761010080835404028352916020019161044b565b820191906000526020600020905b81548152906001019060200180831161042e57829003601f168201915b5050505050905090565b600061046082610c56565b61049f576040517f08c379a000000000000000000000000000000000000000000000000000000000815260040161049690612701565b60405180910390fd5b6004600083815260200190815260200160002060009054906101000a900473ffffffffffffffffffffffffffffffffffffffff169050919050565b60006104e582610672565b90508073ffffffffffffffffffffffffffffffffffffffff168373ffffffffffffffffffffffffffffffffffffffff161415610556576040517f08c379a000000000000000000000000000000000000000000000000000000000815260040161054d90612761565b60405180910390fd5b8073ffffffffffffffffffffffffffffffffffffffff16610575610cc2565b73ffffffffffffffffffffffffffffffffffffffff1614806105a457506105a38161059e610cc2565b610abf565b5b6105e3576040517f08c379a00000000000000000000000000000000000000000000000000000000081526004016105da90612641565b60405180910390fd5b6105ed8383610cca565b505050565b6106036105fd610cc2565b82610d83565b610642576040517f08c379a000000000000000000000000000000000000000000000000000000000815260040161063990612781565b60405180910390fd5b61064d838383610e61565b505050565b61066d8383836040518060200160405280600081525061090b565b505050565b6000806002600084815260200190815260200160002060009054906101000a900473ffffffffffffffffffffffffffffffffffffffff169050600073ffffffffffffffffffffffffffffffffffffffff168173ffffffffffffffffffffffffffffffffffffffff16141561071b576040517f08c379a000000000000000000000000000000000000000000000000000000000815260040161071290612681565b60405180910390fd5b80915050919050565b60008073ffffffffffffffffffffffffffffffffffffffff168273ffffffffffffffffffffffffffffffffffffffff161415610795576040517f08c379a000000000000000000000000000000000000000000000000000000000815260040161078c90612661565b60405180910390fd5b600360008373ffffffffffffffffffffffffffffffffffffffff1673ffffffffffffffffffffffffffffffffffffffff168152602001908152602001600020549050919050565b60006107e860076110bd565b90506107f433826110cb565b610833816040518060400160405280600481526020017f626c6168000000000000000000000000000000000000000000000000000000008152506110e9565b610856604051806060016040528060258152602001612ba760259139823361115d565b61086060076111fc565b50565b606060018054610872906129d1565b80601f016020809104026020016040519081016040528092919081815260200182805461089e906129d1565b80156108eb5780601f106108c0576101008083540402835291602001916108eb565b820191906000526020600020905b8154815290600101906020018083116108ce57829003601f168201915b5050505050905090565b610907610900610cc2565b8383611212565b5050565b61091c610916610cc2565b83610d83565b61095b576040517f08c379a000000000000000000000000000000000000000000000000000000000815260040161095290612781565b60405180910390fd5b6109678484848461137f565b50505050565b606061097882610c56565b6109b7576040517f08c379a00000000000000000000000000000000000000000000000000000000081526004016109ae906126e1565b60405180910390fd5b60006006600084815260200190815260200160002080546109d7906129d1565b80601f0160208091040260200160405190810160405280929190818152602001828054610a03906129d1565b8015610a505780601f10610a2557610100808354040283529160200191610a50565b820191906000526020600020905b815481529060010190602001808311610a3357829003601f168201915b505050505090506000610a616113db565b9050600081511415610a77578192505050610aba565b600082511115610aac578082604051602001610a9492919061249b565b60405160208183030381529060405292505050610aba565b610ab5846113f2565b925050505b919050565b6000600560008473ffffffffffffffffffffffffffffffffffffffff1673ffffffffffffffffffffffffffffffffffffffff16815260200190815260200160002060008373ffffffffffffffffffffffffffffffffffffffff1673ffffffffffffffffffffffffffffffffffffffff16815260200190815260200160002060009054906101000a900460ff16905092915050565b610be981604051602401610b679190612541565b6040516020818303038152906040527f41304fac000000000000000000000000000000000000000000000000000000007bffffffffffffffffffffffffffffffffffffffffffffffffffffffff19166020820180517bffffffffffffffffffffffffffffffffffffffffffffffffffffffff8381831617835250505050611499565b50565b60007f01ffc9a7000000000000000000000000000000000000000000000000000000007bffffffffffffffffffffffffffffffffffffffffffffffffffffffff1916827bffffffffffffffffffffffffffffffffffffffffffffffffffffffff1916149050919050565b60008073ffffffffffffffffffffffffffffffffffffffff166002600084815260200190815260200160002060009054906101000a900473ffffffffffffffffffffffffffffffffffffffff1673ffffffffffffffffffffffffffffffffffffffff1614159050919050565b600033905090565b816004600083815260200190815260200160002060006101000a81548173ffffffffffffffffffffffffffffffffffffffff021916908373ffffffffffffffffffffffffffffffffffffffff160217905550808273ffffffffffffffffffffffffffffffffffffffff16610d3d83610672565b73ffffffffffffffffffffffffffffffffffffffff167f8c5be1e5ebec7d5bd14f71427d1e84f3dd0314c0f7b2291e5b200ac8c7c3b92560405160405180910390a45050565b6000610d8e82610c56565b610dcd576040517f08c379a0000000000000000000000000000000000000000000000000000000008152600401610dc490612621565b60405180910390fd5b6000610dd883610672565b90508073ffffffffffffffffffffffffffffffffffffffff168473ffffffffffffffffffffffffffffffffffffffff161480610e4757508373ffffffffffffffffffffffffffffffffffffffff16610e2f84610455565b73ffffffffffffffffffffffffffffffffffffffff16145b80610e585750610e578185610abf565b5b91505092915050565b8273ffffffffffffffffffffffffffffffffffffffff16610e8182610672565b73ffffffffffffffffffffffffffffffffffffffff1614610ed7576040517f08c379a0000000000000000000000000000000000000000000000000000000008152600401610ece90612721565b60405180910390fd5b600073ffffffffffffffffffffffffffffffffffffffff168273ffffffffffffffffffffffffffffffffffffffff161415610f47576040517f08c379a0000000000000000000000000000000000000000000000000000000008152600401610f3e906125e1565b60405180910390fd5b610f528383836114c2565b610f5d600082610cca565b6001600360008573ffffffffffffffffffffffffffffffffffffffff1673ffffffffffffffffffffffffffffffffffffffff1681526020019081526020016000206000828254610fad91906128e7565b925050819055506001600360008473ffffffffffffffffffffffffffffffffffffffff1673ffffffffffffffffffffffffffffffffffffffff16815260200190815260200160002060008282546110049190612860565b92505081905550816002600083815260200190815260200160002060006101000a81548173ffffffffffffffffffffffffffffffffffffffff021916908373ffffffffffffffffffffffffffffffffffffffff160217905550808273ffffffffffffffffffffffffffffffffffffffff168473ffffffffffffffffffffffffffffffffffffffff167fddf252ad1be2c89b69c2b068fc378daa952ba7f163c4a11628f55a4df523b3ef60405160405180910390a4505050565b600081600001549050919050565b6110e58282604051806020016040528060008152506114c7565b5050565b6110f282610c56565b611131576040517f08c379a0000000000000000000000000000000000000000000000000000000008152600401611128906126a1565b60405180910390fd5b80600660008481526020019081526020016000209080519060200190611158929190611a47565b505050565b6111f783838360405160240161117593929190612563565b6040516020818303038152906040527fe3849f79000000000000000000000000000000000000000000000000000000007bffffffffffffffffffffffffffffffffffffffffffffffffffffffff19166020820180517bffffffffffffffffffffffffffffffffffffffffffffffffffffffff8381831617835250505050611499565b505050565b6001816000016000828254019250508190555050565b8173ffffffffffffffffffffffffffffffffffffffff168373ffffffffffffffffffffffffffffffffffffffff161415611281576040517f08c379a000000000000000000000000000000000000000000000000000000000815260040161127890612601565b60405180910390fd5b80600560008573ffffffffffffffffffffffffffffffffffffffff1673ffffffffffffffffffffffffffffffffffffffff16815260200190815260200160002060008473ffffffffffffffffffffffffffffffffffffffff1673ffffffffffffffffffffffffffffffffffffffff16815260200190815260200160002060006101000a81548160ff0219169083151502179055508173ffffffffffffffffffffffffffffffffffffffff168373ffffffffffffffffffffffffffffffffffffffff167f17307eab39ab6107e8899845ad3d59bd9653f200f220920489ca2b5937696c31836040516113729190612526565b60405180910390a3505050565b61138a848484610e61565b61139684848484611522565b6113d5576040517f08c379a00000000000000000000000000000000000000000000000000000000081526004016113cc906125a1565b60405180910390fd5b50505050565b606060405180602001604052806000815250905090565b60606113fd82610c56565b61143c576040517f08c379a000000000000000000000000000000000000000000000000000000000815260040161143390612741565b60405180910390fd5b60006114466113db565b905060008151116114665760405180602001604052806000815250611491565b80611470846116b9565b60405160200161148192919061249b565b6040516020818303038152906040525b915050919050565b60008151905060006a636f6e736f6c652e6c6f679050602083016000808483855afa5050505050565b505050565b6114d18383611866565b6114de6000848484611522565b61151d576040517f08c379a0000000000000000000000000000000000000000000000000000000008152600401611514906125a1565b60405180910390fd5b505050565b60006115438473ffffffffffffffffffffffffffffffffffffffff16611a34565b156116ac578373ffffffffffffffffffffffffffffffffffffffff1663150b7a0261156c610cc2565b8786866040518563ffffffff1660e01b815260040161158e94939291906124da565b602060405180830381600087803b1580156115a857600080fd5b505af19250505080156115d957506040513d601f19601f820116820180604052508101906115d69190611d8b565b60015b61165c573d8060008114611609576040519150601f19603f3d011682016040523d82523d6000602084013e61160e565b606091505b50600081511415611654576040517f08c379a000000000000000000000000000000000000000000000000000000000815260040161164b906125a1565b60405180910390fd5b805181602001fd5b63150b7a0260e01b7bffffffffffffffffffffffffffffffffffffffffffffffffffffffff1916817bffffffffffffffffffffffffffffffffffffffffffffffffffffffff1916149150506116b1565b600190505b949350505050565b60606000821415611701576040518060400160405280600181526020017f30000000000000000000000000000000000000000000000000000000000000008152509050611861565b600082905060005b6000821461173357808061171c90612a03565b915050600a8261172c91906128b6565b9150611709565b60008167ffffffffffffffff811115611775577f4e487b7100000000000000000000000000000000000000000000000000000000600052604160045260246000fd5b6040519080825280601f01601f1916602001820160405280156117a75781602001600182028036833780820191505090505b5090505b6000851461185a576001826117c091906128e7565b9150600a856117cf9190612a4c565b60306117db9190612860565b60f81b818381518110611817577f4e487b7100000000000000000000000000000000000000000000000000000000600052603260045260246000fd5b60200101907effffffffffffffffffffffffffffffffffffffffffffffffffffffffffffff1916908160001a905350600a8561185391906128b6565b94506117ab565b8093505050505b919050565b600073ffffffffffffffffffffffffffffffffffffffff168273ffffffffffffffffffffffffffffffffffffffff1614156118d6576040517f08c379a00000000000000000000000000000000000000000000000000000000081526004016118cd906126c1565b60405180910390fd5b6118df81610c56565b1561191f576040517f08c379a0000000000000000000000000000000000000000000000000000000008152600401611916906125c1565b60405180910390fd5b61192b600083836114c2565b6001600360008473ffffffffffffffffffffffffffffffffffffffff1673ffffffffffffffffffffffffffffffffffffffff168152602001908152602001600020600082825461197b9190612860565b92505081905550816002600083815260200190815260200160002060006101000a81548173ffffffffffffffffffffffffffffffffffffffff021916908373ffffffffffffffffffffffffffffffffffffffff160217905550808273ffffffffffffffffffffffffffffffffffffffff16600073ffffffffffffffffffffffffffffffffffffffff167fddf252ad1be2c89b69c2b068fc378daa952ba7f163c4a11628f55a4df523b3ef60405160405180910390a45050565b600080823b905060008111915050919050565b828054611a53906129d1565b90600052602060002090601f016020900481019282611a755760008555611abc565b82601f10611a8e57805160ff1916838001178555611abc565b82800160010185558215611abc579182015b82811115611abb578251825591602001919060010190611aa0565b5b509050611ac99190611acd565b5090565b5b80821115611ae6576000816000905550600101611ace565b5090565b6000611afd611af8846127ed565b6127bc565b905082815260208101848484011115611b1557600080fd5b611b2084828561298f565b509392505050565b600081359050611b3781612b4a565b92915050565b600081359050611b4c81612b61565b92915050565b600081359050611b6181612b78565b92915050565b600081519050611b7681612b78565b92915050565b600082601f830112611b8d57600080fd5b8135611b9d848260208601611aea565b91505092915050565b600081359050611bb581612b8f565b92915050565b600060208284031215611bcd57600080fd5b6000611bdb84828501611b28565b91505092915050565b60008060408385031215611bf757600080fd5b6000611c0585828601611b28565b9250506020611c1685828601611b28565b9150509250929050565b600080600060608486031215611c3557600080fd5b6000611c4386828701611b28565b9350506020611c5486828701611b28565b9250506040611c6586828701611ba6565b9150509250925092565b60008060008060808587031215611c8557600080fd5b6000611c9387828801611b28565b9450506020611ca487828801611b28565b9350506040611cb587828801611ba6565b925050606085013567ffffffffffffffff811115611cd257600080fd5b611cde87828801611b7c565b91505092959194509250565b60008060408385031215611cfd57600080fd5b6000611d0b85828601611b28565b9250506020611d1c85828601611b3d565b9150509250929050565b60008060408385031215611d3957600080fd5b6000611d4785828601611b28565b9250506020611d5885828601611ba6565b9150509250929050565b600060208284031215611d7457600080fd5b6000611d8284828501611b52565b91505092915050565b600060208284031215611d9d57600080fd5b6000611dab84828501611b67565b91505092915050565b600060208284031215611dc657600080fd5b6000611dd484828501611ba6565b91505092915050565b611de68161291b565b82525050565b611df58161292d565b82525050565b6000611e068261281d565b611e108185612833565b9350611e2081856020860161299e565b611e2981612b39565b840191505092915050565b6000611e3f82612828565b611e498185612844565b9350611e5981856020860161299e565b611e6281612b39565b840191505092915050565b6000611e7882612828565b611e828185612855565b9350611e9281856020860161299e565b80840191505092915050565b6000611eab603283612844565b91507f4552433732313a207472616e7366657220746f206e6f6e20455243373231526560008301527f63656976657220696d706c656d656e74657200000000000000000000000000006020830152604082019050919050565b6000611f11601c83612844565b91507f4552433732313a20746f6b656e20616c7265616479206d696e746564000000006000830152602082019050919050565b6000611f51602483612844565b91507f4552433732313a207472616e7366657220746f20746865207a65726f2061646460008301527f72657373000000000000000000000000000000000000000000000000000000006020830152604082019050919050565b6000611fb7601983612844565b91507f4552433732313a20617070726f766520746f2063616c6c6572000000000000006000830152602082019050919050565b6000611ff7602c83612844565b91507f4552433732313a206f70657261746f7220717565727920666f72206e6f6e657860008301527f697374656e7420746f6b656e00000000000000000000000000000000000000006020830152604082019050919050565b600061205d603883612844565b91507f4552433732313a20617070726f76652063616c6c6572206973206e6f74206f7760008301527f6e6572206e6f7220617070726f76656420666f7220616c6c00000000000000006020830152604082019050919050565b60006120c3602a83612844565b91507f4552433732313a2062616c616e636520717565727920666f7220746865207a6560008301527f726f2061646472657373000000000000000000000000000000000000000000006020830152604082019050919050565b6000612129602983612844565b91507f4552433732313a206f776e657220717565727920666f72206e6f6e657869737460008301527f656e7420746f6b656e00000000000000000000000000000000000000000000006020830152604082019050919050565b600061218f602e83612844565b91507f45524337323155524953746f726167653a2055524920736574206f66206e6f6e60008301527f6578697374656e7420746f6b656e0000000000000000000000000000000000006020830152604082019050919050565b60006121f5602083612844565b91507f4552433732313a206d696e7420746f20746865207a65726f20616464726573736000830152602082019050919050565b6000612235603183612844565b91507f45524337323155524953746f726167653a2055524920717565727920666f722060008301527f6e6f6e6578697374656e7420746f6b656e0000000000000000000000000000006020830152604082019050919050565b600061229b602c83612844565b91507f4552433732313a20617070726f76656420717565727920666f72206e6f6e657860008301527f697374656e7420746f6b656e00000000000000000000000000000000000000006020830152604082019050919050565b6000612301602983612844565b91507f4552433732313a207472616e73666572206f6620746f6b656e2074686174206960008301527f73206e6f74206f776e00000000000000000000000000000000000000000000006020830152604082019050919050565b6000612367602f83612844565b91507f4552433732314d657461646174613a2055524920717565727920666f72206e6f60008301527f6e6578697374656e7420746f6b656e00000000000000000000000000000000006020830152604082019050919050565b60006123cd602183612844565b91507f4552433732313a20617070726f76616c20746f2063757272656e74206f776e6560008301527f72000000000000000000000000000000000000000000000000000000000000006020830152604082019050919050565b6000612433603183612844565b91507f4552433732313a207472616e736665722063616c6c6572206973206e6f74206f60008301527f776e6572206e6f7220617070726f7665640000000000000000000000000000006020830152604082019050919050565b61249581612985565b82525050565b60006124a78285611e6d565b91506124b38284611e6d565b91508190509392505050565b60006020820190506124d46000830184611ddd565b92915050565b60006080820190506124ef6000830187611ddd565b6124fc6020830186611ddd565b612509604083018561248c565b818103606083015261251b8184611dfb565b905095945050505050565b600060208201905061253b6000830184611dec565b92915050565b6000602082019050818103600083015261255b8184611e34565b905092915050565b6000606082019050818103600083015261257d8186611e34565b905061258c602083018561248c565b6125996040830184611ddd565b949350505050565b600060208201905081810360008301526125ba81611e9e565b9050919050565b600060208201905081810360008301526125da81611f04565b9050919050565b600060208201905081810360008301526125fa81611f44565b9050919050565b6000602082019050818103600083015261261a81611faa565b9050919050565b6000602082019050818103600083015261263a81611fea565b9050919050565b6000602082019050818103600083015261265a81612050565b9050919050565b6000602082019050818103600083015261267a816120b6565b9050919050565b6000602082019050818103600083015261269a8161211c565b9050919050565b600060208201905081810360008301526126ba81612182565b9050919050565b600060208201905081810360008301526126da816121e8565b9050919050565b600060208201905081810360008301526126fa81612228565b9050919050565b6000602082019050818103600083015261271a8161228e565b9050919050565b6000602082019050818103600083015261273a816122f4565b9050919050565b6000602082019050818103600083015261275a8161235a565b9050919050565b6000602082019050818103600083015261277a816123c0565b9050919050565b6000602082019050818103600083015261279a81612426565b9050919050565b60006020820190506127b6600083018461248c565b92915050565b6000604051905081810181811067ffffffffffffffff821117156127e3576127e2612b0a565b5b8060405250919050565b600067ffffffffffffffff82111561280857612807612b0a565b5b601f19601f8301169050602081019050919050565b600081519050919050565b600081519050919050565b600082825260208201905092915050565b600082825260208201905092915050565b600081905092915050565b600061286b82612985565b915061287683612985565b9250827fffffffffffffffffffffffffffffffffffffffffffffffffffffffffffffffff038211156128ab576128aa612a7d565b5b828201905092915050565b60006128c182612985565b91506128cc83612985565b9250826128dc576128db612aac565b5b828204905092915050565b60006128f282612985565b91506128fd83612985565b9250828210156129105761290f612a7d565b5b828203905092915050565b600061292682612965565b9050919050565b60008115159050919050565b60007fffffffff0000000000000000000000000000000000000000000000000000000082169050919050565b600073ffffffffffffffffffffffffffffffffffffffff82169050919050565b6000819050919050565b82818337600083830152505050565b60005b838110156129bc5780820151818401526020810190506129a1565b838111156129cb576000848401525b50505050565b600060028204905060018216806129e957607f821691505b602082108114156129fd576129fc612adb565b5b50919050565b6000612a0e82612985565b91507fffffffffffffffffffffffffffffffffffffffffffffffffffffffffffffffff821415612a4157612a40612a7d565b5b600182019050919050565b6000612a5782612985565b9150612a6283612985565b925082612a7257612a71612aac565b5b828206905092915050565b7f4e487b7100000000000000000000000000000000000000000000000000000000600052601160045260246000fd5b7f4e487b7100000000000000000000000000000000000000000000000000000000600052601260045260246000fd5b7f4e487b7100000000000000000000000000000000000000000000000000000000600052602260045260246000fd5b7f4e487b7100000000000000000000000000000000000000000000000000000000600052604160045260246000fd5b6000601f19601f8301169050919050565b612b538161291b565b8114612b5e57600080fd5b50565b612b6a8161292d565b8114612b7557600080fd5b50565b612b8181612939565b8114612b8c57600080fd5b50565b612b9881612985565b8114612ba357600080fd5b5056fe416e204e465420772f20494420257320686173206265656e206d696e74656420746f202573a264697066735822122045832d1999af33f77c85f5f181c86fa3d0900fc6da3f3d9ca94ddd3786c9835d64736f6c63430008000033",
  "linkReferences": {},
  "deployedLinkReferences": {}
}